:07000300436C6F636B3A00D0
:1000A2001202CD12028B7BFF7A0079037D017F0160
:1000B20012022DE51BFB7A00750C027D077F0112EF
:1000C200026E7B3A7D097F01120306E51CFB7A0072
:1000D200750C027D0A7F0112026E7B3A7D0C7F0154
:1000E200120306E51AFB7A00750C027D0D7F0112E0
:1000F200026E7B687D087F021203067B6D7D0B7F9B
:0F010200021203067B737D0E7F0212030680A498
:03000B00020111DE
:04011100C0E0C0D0BA
:10011500758A18758CFC0519E51970020518C394C4
:10012500E8E5189403401E751800751900051AE5D1
:100135001A943C4010751A00051CE51C943C4005BA
:05014500751C00051B04
:05014A00D0D0D0E0322E
:1002B800EF1FAC0670011E4C600A7D027CEFDCFE6D
:0402C800DDFC80ECED
:0102CC00220F
:10028B005389F0438901758A18758CFCC28DD28C09
:07029B00D2A9D2AFC2B922C3
:0602E100C2A58F80D2A728
:0802E7007F027EEFDEFEDFFC6A
:0102EF0022EC
:0A02FC00C2A61202E1C2A70202E747
:10025000CFCDCFCECCCE12004D7C007D0A12004D0A
:04026000ED2430FF5A
:0A026400D2A61202E1C2A70202E7CF
:1002A200AE07BE0104ED148006BE0209ED243F44F0
:0602B20080FF1202FC2295
:1002CD007F381202FC7F0C1202FC7F061202FC7FAB
:0402DD00010202FC1C
:0A030600AC031202A2AF040202646D
:06022D008B088A09890A12
:100233001202A2E4FDAB08AA09A90A8D8275830004
:0C02430012000EFF60061202640D80E93C
:01024F00228C
:0C01FA007F0AEA24FFFDE434FFFC7E00D5
:080206008E0D8F0E8C0F8D1080
:10020E007F017E00E4FBEBC39510E50F6480F8746C
:0E021E008098500AAC0DAD0E12003B0B80E82C
:01022C0022AF
:04026E008A0A8B0B62
:100272001202A2AA0CEAD39400400D1201FAAC0AAF
:08028200AD0B1202501A80EDD1
:01028A002251
:10014F001202A2C3EA64809480400B7F2B120264D8
:10015F008A168B17800E7F2D120264C3E49BF5174E
:10016F00E49AF516AA15EAD39400400D1201FAACE1
:09017F0016AD171202501A80EDB2
:010188002254
:040189008A1F8B201E
:10018D001202A2AA21EAD3940040297F101201FC89
:10019D00AC1FAD20CFCDCFCECCCE12004DEF540F36
:1001AD00FEC3940AEE5004243080022437FF12025D
:0401BD00641A80D16F
:0101C100221B
:0401C2008A248B25DB
:1001C6001202A2AA26EAD394004028EA24FFFDE4FC
:1001D60034FFFC7F027E00120206AC24AD25CFCD93
:1001E600CFCECCCE12004DEF54012430FF12026464
:0301F6001A80D29A
:0101F90022E3
:030000000202F009
:0C02F000787FE4F6D8FD7581260200A29C
:10000E00BB010CE58229F582E5833AF583E02250A7
:10001E0006E92582F8E622BBFE06E92582F8E222F1
:0D002E00E58229F582E5833AF583E493220B
:10003B00EF8DF0A4A8F0CF8CF0A428CE8DF0A42ED9
:02004B00FE2293
:10004D00BC000BBE0029EF8DF084FFADF022E4CC97
:10005D00F875F008EF2FFFEE33FEEC33FCEE9DEC60
:10006D00984005FCEE9DFE0FD5F0E9E4CEFD22EDA6
:10007D00F8F5F0EE8420D21CFEADF075F008EF2FF0
:10008D00FFED33FD4007985006D5F0F222C398FDE1
:05009D000FD5F0EA227E
:00000001FF
