:0A0268004C696768746E696E6700E8
:100097001202397BFF7A0279687D017F011201B074
:1000A7007FF47E011202247B307D017F0212027CE5
:1000B7007B317D027F0212027C7B377D037F021238
:0B00C700027C7FF47E0112022480C83E
:06024D00C2A58F80D2A7BC
:080253007F027EEFDEFEDFFCFE
:01025B002280
:0A027200C2A612024DC2A7020253F9
:1001D300CFCDCFCECCCE1200427C007D0A1200429E
:0401E300ED2430FFD8
:0A01E700D2A612024DC2A702025375
:10020E00AE07BE0104ED148006BE0209ED243F4484
:06021E0080FF12027222B3
:100239007F381202727F0C1202727F061202727FDD
:04024900010202723A
:0A027C00AC0312020EAF040201E70A
:0601B0008B228A23892442
:1001B60012020EE4FDAB22AA23A9248D82758300C8
:0C01C600120003FF60061201E70D80E943
:0101D200220A
:0C017D007F0AEA24FFFDE434FFFC7E0052
:080189008E1E8F1F8C208D21BA
:100191007F017E00E4FBEBC39521E5206480F874C8
:0E01A1008098500AAC1EAD1F1200300B80E893
:0101AF00222D
:0401F1008A118B12D2
:1001F50012020EAA13EAD39400400D12017DAC1130
:08020500AD121201D31A80EDC5
:01020D0022CE
:1000D20012020EC3EA64809480400B7F2B1201E768
:1000E2008A0D8B0E800E7F2D1201E7C3E49BF50E65
:1000F200E49AF50DAA0CEAD39400400D12017DACEE
:090102000DAD0E1201D31A80EDBF
:01010B0022D1
:04010C008A168B17AD
:1001100012020EAA18EAD3940040297F1012017F20
:10012000AC16AD17CFCDCFCECCCE120042EF540FD0
:10013000FEC3940AEE5004243080022437FF1201DB
:04014000E71A80D169
:010144002298
:040145008A1B8B1C6A
:1001490012020EAA1DEAD394004028EA24FFFDE416
:1001590034FFFC7F027E00120189AC1BAD1CCFCDA0
:10016900CFCECCCE120042EF54012430FF1201E76A
:030179001A80D217
:01017C002260
:10022400EF1FAC0670011E4C600A7D027CEFDCFE01
:04023400DDFC80EC81
:0102380022A3
:0300000002025C9D
:0C025C00787FE4F6D8FD7581240200973D
:10000300BB010CE58229F582E5833AF583E02250B2
:1000130006E92582F8E622BBFE06E92582F8E222FC
:0D002300E58229F582E5833AF583E4932216
:10003000EF8DF0A4A8F0CF8CF0A428CE8DF0A42EE4
:02004000FE229E
:10004200BC000BBE0029EF8DF084FFADF022E4CCA2
:10005200F875F008EF2FFFEE33FEEC33FCEE9DEC6B
:10006200984005FCEE9DFE0FD5F0E9E4CEFD22EDB1
:10007200F8F5F0EE8420D21CFEADF075F008EF2FFB
:10008200FFED33FD4007985006D5F0F222C398FDEC
:050092000FD5F0EA2289
:00000001FF
