:0A008E001200037F4112009880FE6B
:03002300020026B2
:10002600C0E0C0F0C083C082C0D075D000C000C0A0
:1000360001C002C003C004C005C006C00730980C4A
:10004600E599F4F5A0AF99120098C298D007D006AA
:10005600D005D004D003D002D001D000D0D0D082B9
:07006600D083D0F0D0E0329E
:1000030075985043878053890F438920758BF37507
:0B0013008DF3C2ABD28ED2AFD2AC2274
:080098008F993099FDC29922F5
:10006D00EF1FAC0670011E4C600A7D027CEFDCFEBA
:04007D00DDFC80EC3A
:01008100225C
:0300000002008279
:0C008200787FE4F6D8FD75810702008E3F
:00000001FF
