:1004830050617373576F72643A005472756520003C
:10018C0012046F7BFF7A0479837D017F011203E6F1
:10019C001200038F1CE51C6046D3940A5033C3E550
:1001AC00199404E51894005020AE1AAF1B7C007D06
:1001BC000A1202A18E1A8F1BE51C75F00A84E5F059
:1001CC00251BF51BE4351AF51A0519E519700205FE
:1001DC0018750C04AB1BAA1A7D0A7F01120427E5C3
:1001EC001C640F7049E51B64B97004E51A64047053
:1001FC000F7BFF7A04798D7D017F021203E680006C
:10020C007FDC7E0512045A12046FE4F51AF51BF517
:10021C0018F519750C04AB1BAA1A7D0A7F01120480
:10022C00277BFF7A0479837D017F011203E6E51CAD
:10023C006410600302019C7FDC7E0512045A1204D8
:10024C006FE4F51AF51BF518F519750C04AB1BAA20
:10025C001A7D0A7F011204277BFF7A0479837D01C2
:08026C007F011203E602019C70
:10045A00EF1FAC0670011E4C600A7D027CEFDCFEC9
:04046A00DDFC80EC49
:01046E00226B
:06049300C2A58F80D2A774
:080499007F027EEFDEFEDFFCB6
:0104A1002238
:0A04AE00C2A6120493C2A70204992B
:10040900CFCDCFCECCCE1202B37C007D0A1202B37F
:04041900ED2430FF9F
:0A041D00D2A6120493C2A7020499AC
:10044400AE07BE0104ED148006BE0209ED243F444C
:0604540080FF1204AE223D
:10046F007F381204AE7F0C1204AE7F061204AE7FEB
:04047F00010204AEC4
:0A04B800AC03120444AF0402041D5B
:0603E6008B088A09890A58
:1003EC00120444E4FDAB08AA09A90A8D82758300A6
:0C03FC00120274FF600612041D0D80E95F
:0104080022D1
:0C03B3007F0AEA24FFFDE434FFFC7E001A
:0803BF008E0D8F0E8C0F8D10C6
:1003C7007F017E00E4FBEBC39510E50F6480F874B2
:0E03D7008098500AAC0DAD0E1202A10B80E80A
:0103E50022F5
:040427008A0A8B0BA7
:10042B00120444AA0CEAD39400400D1203B3AC0A95
:08043B00AD0B1204091A80ED5B
:010443002296
:10030800120444C3EA64809480400B7F2B12041DBE
:100318008A168B17800E7F2D12041DC3E49BF517D8
:10032800E49AF516AA15EAD39400400D1203B3AC6B
:0903380016AD171204091A80ED3C
:010341002299
:040342008A1F8B2063
:10034600120444AA21EAD3940040297F101203B56F
:10035600AC1FAD20CFCDCFCECCCE1202B3EF540F13
:10036600FEC3940AEE5004243080022437FF1204A0
:040376001D1A80D1FB
:01037A002260
:04037B008A248B2520
:10037F00120444AA26EAD394004028EA24FFFDE49D
:10038F0034FFFC7F027E001203BFAC24AD25CFCD1E
:10039F00CFCECCCE1202B3EF54012430FF12041D86
:0303AF001A80D2DF
:0103B2002228
:10000300E4F5087590FFC2932097137F14FE120442
:100013005A3097FD7F147E0012045A75080120960A
:10002300147F147E0012045A3096FD7F147E001252
:10003300045A7508052095147F147E0012045A3063
:1000430095FD7F147E0012045A7508092094147FCD
:10005300147E0012045A3094FD7F147E0012045A59
:1000630075080D7590FFC2922097147F147E0012BD
:10007300045A3097FD7F147E0012045A750802203B
:1000830096147F147E0012045A3096FD7F147E006E
:1000930012045A7508062095147F147E0012045A20
:1000A3003095FD7F147E0012045A75080A209414BB
:1000B3007F147E0012045A3094FD7F147E001204D4
:1000C3005A75080E7590FFC2912097147F147E0015
:1000D30012045A3097FD7F147E0012045A750803E8
:1000E3002096147F147E0012045A3096FD7F147EEE
:1000F3000012045A7508072095147F147E00120419
:100103005A3095FD7F147E0012045A75080B209413
:10011300147F147E0012045A3094FD7F147E001263
:10012300045A75080F7590FFC2902097147F147EB0
:100133000012045A3097FD7F147E0012045A75088A
:10014300042096147F147E0012045A3096FD7F1407
:100153007E0012045A7508082095147F147E00123D
:10016300045A3095FD7F147E0012045A75080C2042
:1001730094147F147E0012045A3094FD7F147E0081
:0801830012045A750810AF08C0
:01018B002251
:030000000204A255
:0C04A200787FE4F6D8FD75812602018CFD
:10027400BB010CE58229F582E5833AF583E022503F
:1002840006E92582F8E622BBFE06E92582F8E22289
:0D029400E58229F582E5833AF583E49322A3
:1002A100EF8DF0A4A8F0CF8CF0A428CE8DF0A42E71
:0202B100FE222B
:1002B300BC000BBE0029EF8DF084FFADF022E4CC2F
:1002C300F875F008EF2FFFEE33FEEC33FCEE9DECF8
:1002D300984005FCEE9DFE0FD5F0E9E4CEFD22ED3E
:1002E300F8F5F0EE8420D21CFEADF075F008EF2F88
:1002F300FFED33FD4007985006D5F0F222C398FD79
:050303000FD5F0EA2215
:00000001FF
